{
  "contractName": "Case",
  "abi": [
    {
      "constant": true,
      "inputs": [
        {
          "name": "",
          "type": "address"
        }
      ],
      "name": "authorisations",
      "outputs": [
        {
          "name": "authWeight",
          "type": "uint256"
        }
      ],
      "payable": false,
      "stateMutability": "view",
      "type": "function"
    },
    {
      "inputs": [],
      "payable": false,
      "stateMutability": "nonpayable",
      "type": "constructor"
    },
    {
      "constant": false,
      "inputs": [
        {
          "name": "patient",
          "type": "address"
        }
      ],
      "name": "requestToModify",
      "outputs": [
        {
          "name": "requester",
          "type": "address"
        },
        {
          "name": "authWeight",
          "type": "uint256"
        }
      ],
      "payable": false,
      "stateMutability": "nonpayable",
      "type": "function"
    },
    {
      "constant": false,
      "inputs": [
        {
          "name": "authUser",
          "type": "address"
        }
      ],
      "name": "authToModify",
      "outputs": [
        {
          "name": "requester",
          "type": "address"
        },
        {
          "name": "authWeight",
          "type": "uint256"
        }
      ],
      "payable": false,
      "stateMutability": "nonpayable",
      "type": "function"
    },
    {
      "constant": false,
      "inputs": [
        {
          "name": "age",
          "type": "uint256"
        },
        {
          "name": "gender",
          "type": "string"
        },
        {
          "name": "bodyTemperature",
          "type": "uint256"
        },
        {
          "name": "heartRate",
          "type": "uint256"
        },
        {
          "name": "isQunisy",
          "type": "bool"
        },
        {
          "name": "note",
          "type": "string"
        },
        {
          "name": "prescription",
          "type": "string"
        }
      ],
      "name": "modifyReport",
      "outputs": [],
      "payable": false,
      "stateMutability": "nonpayable",
      "type": "function"
    }
  ],
  "bytecode": "0x608060405234801561001057600080fd5b50336000806101000a81548173ffffffffffffffffffffffffffffffffffffffff021916908373ffffffffffffffffffffffffffffffffffffffff16021790555061083e806100606000396000f300608060405260043610610062576000357c0100000000000000000000000000000000000000000000000000000000900463ffffffff1680631b11917d1461006757806332647f57146100f157806365231bb31461014857806384ffa95c146101d2575b600080fd5b34801561007357600080fd5b506100a8600480360381019080803573ffffffffffffffffffffffffffffffffffffffff1690602001909291905050506102f1565b604051808373ffffffffffffffffffffffffffffffffffffffff1673ffffffffffffffffffffffffffffffffffffffff1681526020018281526020019250505060405180910390f35b3480156100fd57600080fd5b50610132600480360381019080803573ffffffffffffffffffffffffffffffffffffffff1690602001909291905050506103e4565b6040518082815260200191505060405180910390f35b34801561015457600080fd5b50610189600480360381019080803573ffffffffffffffffffffffffffffffffffffffff169060200190929190505050610402565b604051808373ffffffffffffffffffffffffffffffffffffffff1673ffffffffffffffffffffffffffffffffffffffff1681526020018281526020019250505060405180910390f35b3480156101de57600080fd5b506102ef60048036038101908080359060200190929190803590602001908201803590602001908080601f01602080910402602001604051908101604052809392919081815260200183838082843782019150505050505091929192908035906020019092919080359060200190929190803515159060200190929190803590602001908201803590602001908080601f0160208091040260200160405190810160405280939291908181526020018383808284378201915050505050509192919290803590602001908201803590602001908080601f0160208091040260200160405190810160405280939291908181526020018383808284378201915050505050509192919290505050610543565b005b6000806000809054906101000a900473ffffffffffffffffffffffffffffffffffffffff1673ffffffffffffffffffffffffffffffffffffffff168373ffffffffffffffffffffffffffffffffffffffff1614151561034f57600080fd5b6008600360003373ffffffffffffffffffffffffffffffffffffffff1673ffffffffffffffffffffffffffffffffffffffff1681526020019081526020016000206000018190555033600360003373ffffffffffffffffffffffffffffffffffffffff1673ffffffffffffffffffffffffffffffffffffffff1681526020019081526020016000206000015491509150915091565b60036020528060005260406000206000915090508060000154905081565b6000806000809054906101000a900473ffffffffffffffffffffffffffffffffffffffff1673ffffffffffffffffffffffffffffffffffffffff163373ffffffffffffffffffffffffffffffffffffffff161480156104a357506008600360008573ffffffffffffffffffffffffffffffffffffffff1673ffffffffffffffffffffffffffffffffffffffff16815260200190815260200160002060000154145b15156104ae57600080fd5b6009600360008573ffffffffffffffffffffffffffffffffffffffff1673ffffffffffffffffffffffffffffffffffffffff1681526020019081526020016000206000018190555082600360008573ffffffffffffffffffffffffffffffffffffffff1673ffffffffffffffffffffffffffffffffffffffff1681526020019081526020016000206000015491509150915091565b60006009600360003373ffffffffffffffffffffffffffffffffffffffff1673ffffffffffffffffffffffffffffffffffffffff1681526020019081526020016000206000015414151561059657600080fd5b429050876002828154811015156105a957fe5b906000526020600020906009020160000181905550866002828154811015156105ce57fe5b906000526020600020906009020160010190805190602001906105f292919061076d565b508560028281548110151561060357fe5b9060005260206000209060090201600201819055508460028281548110151561062857fe5b9060005260206000209060090201600301819055508360028281548110151561064d57fe5b906000526020600020906009020160040160006101000a81548160ff0219169083151502179055508260028281548110151561068557fe5b906000526020600020906009020160050190805190602001906106a992919061076d565b50816002828154811015156106ba57fe5b906000526020600020906009020160060190805190602001906106de92919061076d565b50336002828154811015156106ef57fe5b906000526020600020906009020160070160006101000a81548173ffffffffffffffffffffffffffffffffffffffff021916908373ffffffffffffffffffffffffffffffffffffffff1602179055508060028281548110151561074e57fe5b9060005260206000209060090201600801819055505050505050505050565b828054600181600116156101000203166002900490600052602060002090601f016020900481019282601f106107ae57805160ff19168380011785556107dc565b828001600101855582156107dc579182015b828111156107db5782518255916020019190600101906107c0565b5b5090506107e991906107ed565b5090565b61080f91905b8082111561080b5760008160009055506001016107f3565b5090565b905600a165627a7a7230582031dfd377598001d575d5f1d17fac624033d7aea9b9bbad68beb057d109191dcc0029",
  "source": "pragma solidity ^0.4.0;\n\ncontract Case {\n    \n    // Report\n    struct Report {\n        \n        // Personal Basic Information\n        uint age;\n        string gender;\n        \n        // Current Diagnose Result\n        uint bodyTemperature;\n        uint heartRate;\n        bool isQunisy;\n        string note;\n        string prescription;\n        \n        // Doctor Who Attends\n        address doctor;\n        \n        // Timestamp\n        uint timestamp;\n    }\n    \n    // Authorisation\n    struct Authorisation {\n        // operation weight\n        // noneAuth: 0 \n        // requestModify: 8 \n        // authModify: 9 \n        // requestPrescription: 18 \n        // authPrescription: 19 \n        uint authWeight;\n    }\n    \n    // User\n    address user;\n    \n    // All doctors updated\n    address[] doctors;\n    \n    // All reports for users\n    Report[] reports;\n    \n    constructor () public {\n        user = msg.sender;\n        \n    }\n    \n    // All authorisations\n    mapping(address => Authorisation) public authorisations;\n    \n    // Organisation requests to modify\n    function requestToModify(address patient) public returns (address requester, uint authWeight) {\n        require(patient == user);\n        authorisations[msg.sender].authWeight = 8;\n        \n        return (msg.sender, authorisations[msg.sender].authWeight);\n    }\n    \n    // User authorises to modify\n    function authToModify(address authUser) public returns (address requester, uint authWeight) {\n        require(msg.sender == user && authorisations[authUser].authWeight == 8);\n        authorisations[authUser].authWeight = 9;\n        \n        return (authUser, authorisations[authUser].authWeight);\n    }\n    \n    // Organisation modifies the reports\n    function modifyReport(uint age, string gender, uint bodyTemperature, uint heartRate, bool isQunisy, string note, string prescription) public {\n        require(authorisations[msg.sender].authWeight == 9);\n        \n        uint currentTime = now;\n        \n        reports[currentTime].age = age;\n        reports[currentTime].gender = gender;\n        reports[currentTime].bodyTemperature = bodyTemperature;\n        reports[currentTime].heartRate = heartRate;\n        reports[currentTime].isQunisy = isQunisy;\n        reports[currentTime].note = note;\n        reports[currentTime].prescription = prescription;\n        reports[currentTime].doctor = msg.sender;\n        reports[currentTime].timestamp = currentTime;\n        \n    }\n    \n}",
  "sourcePath": "/Users/bigao/Documents/competition/doctor/contracts/case.sol",
  "compiler": {
    "name": "solc",
    "version": "0.4.23+commit.124ca40d.Emscripten.clang"
  },
  "schemaVersion": "2.0.0",
  "updatedAt": "2018-06-23T13:22:11.702Z"
}